:020000040800F2
:1008000000500020F1960008519700085197000809
:100810005197000851970008519700080000000008
:1008200000000000000000000000000051970008D8
:10083000519700080000000051970008DB71000884
:1008400051970008519700085197000851970008E8
:100850005197000851970008CD720008D372000824
:10086000D9720008DF720008E5720008519700088D
:1008700051970008519700085197000851970008B8
:100880005197000851970008519700088D9400086F
:10089000819400085197000851970008EB720008F6
:1008A00051970008FD620008519700081163000885
:1008B00015630008296300083D6300080D2800083F
:1008C0001928000825280008312800085197000839
:1008D00051970008497E0008617E00087D7E00086F
:1008E000137300085197000891940008000000005D
:1008F00000000000000000000000000000000000F8
:0C09000000000000000000005FF808F19B
:10091000034613F8012B002AFBD1181A013870473F
:1009200081F0004102E000BF83F0004330B54FEAA0
:1009300041044FEA430594EA050F08BF90EA020F0D
:100940001FBF54EA000C55EA020C7FEA645C7FEAA0
:10095000655C00F0E2804FEA5454D4EB5555B8BFC3
:100960006D420CDD2C4480EA020281EA030382EA34
:10097000000083EA010180EA020281EA0303362DC6
:1009800088BF30BD11F0004F4FEA01314FF4801C99
:100990004CEA113102D0404261EB410113F0004FAB
:1009A0004FEA03334CEA133302D0524263EB430362
:1009B00094EA050F00F0A780A4F10104D5F1200E00
:1009C0000DDB02FA0EFC22FA05F2801841F100015B
:1009D00003FA0EF2801843FA05F359410EE0A5F12F
:1009E00020050EF1200E012A03FA0EFC28BF4CF060
:1009F000020C43FA05F3C01851EBE37101F0004516
:100A000007D54FF0000EDCF1000C7EEB00006EEB22
:100A10000101B1F5801F1BD3B1F5001F0CD34908AC
:100A20005FEA30004FEA3C0C04F101044FEA445203
:100A300012F5800F80F09A80BCF1004F08BF5FEA8A
:100A4000500C50F1000041EB045141EA050130BD6A
:100A50005FEA4C0C404141EB0101013C28BFB1F57C
:100A6000801FE9D291F0000F04BF01460020B1FAC7
:100A700081F308BF2033A3F10B03B3F120020CDA9A
:100A80000C3208DD02F1140CC2F10C0201FA0CF078
:100A900021FA02F10CE002F11402D8BFC2F1200CDD
:100AA00001FA02F120FA0CFCDCBF41EA0C01904093
:100AB000E41AA2BF01EB0451294330BD6FEA0404DC
:100AC0001F3C1CDA0C340EDC04F11404C4F12002C7
:100AD00020FA04F001FA02F340EA030021FA04F3D9
:100AE00045EA030130BDC4F10C04C4F1200220FA30
:100AF00002F001FA04F340EA0300294630BD21FA6E
:100B000004F0294630BD94F0000F83F4801306BF33
:100B100081F480110134013D4EE77FEA645C18BF27
:100B20007FEA655C29D094EA050F08BF90EA020FBE
:100B300005D054EA000C04BF1946104630BD91EAB6
:100B4000030F1EBF0021002030BD5FEA545C05D1B9
:100B50004000494128BF41F0004130BD14F58004F8
:100B60003CBF01F5801130BD01F0004545F0FE416C
:100B700041F470014FF0000030BD7FEA645C1ABFA1
:100B8000194610467FEA655C1CBF0B46024650EAD8
:100B9000013406BF52EA033591EA030F41F4002104
:100BA00030BD00BF90F0000F04BF0021704730B58A
:100BB0004FF4806404F132044FF000054FF000015F
:100BC00050E700BF90F0000F04BF0021704730B520
:100BD0004FF4806404F1320410F0004548BF4042F5
:100BE0004FF000013EE700BF42004FEAE2014FEA4A
:100BF00031014FEA02701FBF12F07F4393F07F4F25
:100C000081F06051704732F07F4208BF704793F027
:100C10007F4F04BF41F40021704730B54FF460743A
:100C200001F0004521F000411CE700BF50EA01023D
:100C300008BF704730B54FF000050AE050EA0102E6
:100C400008BF704730B511F0004502D5404261EB56
:100C500041014FF4806404F132045FEA915C3FF497
:100C6000D8AE4FF003025FEADC0C18BF03325FEA34
:100C7000DC0C18BF033202EBDC02C2F1200300FAE5
:100C800003FC20FA02F001FA03FE40EA0E0021FA0A
:100C900002F11444BDE600BF70B54FF0FF0C4CF4F8
:100CA000E06C1CEA11541DBF1CEA135594EA0C0FAA
:100CB00095EA0C0F00F0DEF82C4481EA030621EAE5
:100CC0004C5123EA4C5350EA013518BF52EA033520
:100CD00041F4801143F4801338D0A0FB02CE4FF0D2
:100CE0000005E1FB02E506F00042E0FB03E54FF002
:100CF0000006E1FB03569CF0000F18BF4EF0010EFA
:100D0000A4F1FF04B6F5007F64F5407404D25FEAF5
:100D10004E0E6D4146EB060642EAC62141EA5551A8
:100D20004FEAC52040EA5E504FEACE2EB4F1FD0CEA
:100D300088BFBCF5E06F1ED8BEF1004F08BF5FEA68
:100D4000500E50F1000041EB045170BD06F000461A
:100D500046EA010140EA020081EA0301B4EB5C04C7
:100D6000C2BFD4EB0C0541EA045170BD41F48011BF
:100D70004FF0000E013C00F3AB8014F1360FDEBFE4
:100D8000002001F0004170BDC4F10004203C35DAC0
:100D90000C341BDC04F11404C4F1200500FA05F343
:100DA00020FA04F001FA05F240EA020001F00042E4
:100DB00021F0004110EBD37021FA04F642EB06015A
:100DC0005EEA430E08BF20EAD37070BDC4F10C0484
:100DD000C4F1200500FA04F320FA05F001FA04F248
:100DE00040EA020001F0004110EBD37041F1000134
:100DF0005EEA430E08BF20EAD37070BDC4F120053F
:100E000000FA05F24EEA020E20FA04F301FA05F2A6
:100E100043EA020321FA04F001F0004121FA04F24E
:100E200020EA020000EBD3705EEA430E08BF20EA1E
:100E3000D37070BD94F0000F0FD101F00046400058
:100E400041EB010111F4801F08BF013CF7D041EADA
:100E5000060195F0000F18BF704703F000465200DE
:100E600043EB030313F4801F08BF013DF7D043EAAF
:100E70000603704794EA0C0F0CEA135518BF95EA65
:100E80000C0F0CD050EA410618BF52EA4306D1D1EC
:100E900081EA030101F000414FF0000070BD50EA0B
:100EA000410606BF1046194652EA430619D094EA95
:100EB0000C0F02D150EA013613D195EA0C0F05D17F
:100EC00052EA03361CBF104619460AD181EA0301D3
:100ED00001F0004141F0FE4141F470014FF000008B
:100EE00070BD41F0FE4141F4780170BD70B54FF026
:100EF000FF0C4CF4E06C1CEA11541DBF1CEA1355A6
:100F000094EA0C0F95EA0C0F00F0A7F8A4EB050487
:100F100081EA030E52EA03354FEA013100F088807E
:100F20004FEA03334FF0805545EA131343EA126347
:100F30004FEA022245EA111545EA10654FEA0026FC
:100F40000EF000419D4208BF964244F1FD0404F5B5
:100F5000407402D25B084FEA3202B61A65EB030511
:100F60005B084FEA32024FF480104FF4002CB6EBCE
:100F7000020E75EB030E22BFB61A754640EA0C004E
:100F80005B084FEA3202B6EB020E75EB030E22BF8E
:100F9000B61A754640EA5C005B084FEA3202B6EBCF
:100FA000020E75EB030E22BFB61A754640EA9C008E
:100FB0005B084FEA3202B6EB020E75EB030E22BF5E
:100FC000B61A754640EADC0055EA060E18D04FEA1C
:100FD000051545EA16754FEA06164FEAC30343EABC
:100FE00052734FEAC2025FEA1C1CC0D111F4801F89
:100FF0000BD141EA00014FF000004FF0004CB6E782
:1010000011F4801F04BF01430020B4F1FD0C88BF20
:10101000BCF5E06F3FF6AFAEB5EB030C04BFB6EB2B
:10102000020C5FEA500C50F1000041EB045170BD1E
:101030000EF0004E4EEA113114EB5C04C2BFD4EB4B
:101040000C0541EA045170BD41F480114FF0000ECF
:10105000013C90E645EA060E8DE60CEA135594EA4B
:101060000C0F08BF95EA0C0F3FF43BAF94EA0C0F4E
:101070000AD150EA01347FF434AF95EA0C0F7FF4C3
:1010800025AF104619462CE795EA0C0F06D152EA17
:1010900003353FF4FDAE1046194622E750EA4106FB
:1010A00018BF52EA43067FF4C5AE50EA41047FF40C
:1010B0000DAF52EA43057FF4EBAE12E74FF0FF3C71
:1010C00006E000BF4FF0010C02E000BF4FF0010C42
:1010D0004DF804CD4FEA410C7FEA6C5C4FEA430CBB
:1010E00018BF7FEA6C5C1BD001B050EA410C0CBF0A
:1010F00052EA430C91EA030F02BF90EA020F00206C
:10110000704710F1000F91EA030F58BF994208BFD2
:1011100090422CBFD8176FEAE37040F0010070478F
:101120004FEA410C7FEA6C5C02D150EA013C07D1E6
:101130004FEA430C7FEA6C5CD6D152EA033CD3D031
:101140005DF8040B704700BF8446104662468C462B
:101150001946634600E000BF01B5FFF7B7FF00285E
:1011600048BF10F1000F01BD4DF808EDFFF7F4FF87
:101170000CBF012000205DF808FB00BF4DF808ED12
:10118000FFF7EAFF34BF012000205DF808FB00BF35
:101190004DF808EDFFF7E0FF94BF012000205DF857
:1011A00008FB00BF4DF808EDFFF7CEFF94BF01200C
:1011B00000205DF808FB00BF4DF808EDFFF7C4FF05
:1011C00034BF012000205DF808FB00BF4FEA410258
:1011D00012F5001215D211D56FF47873B3EB625289
:1011E00012D94FEAC12343F0004343EA505311F0B0
:1011F000004F23FA02F018BF404270474FF0000042
:10120000704750EA013005D111F0004008BF6FF07F
:10121000004070474FF00000704700BF4A0011D2F5
:1012200012F5001211D20DD56FF47873B3EB625240
:101230000ED44FEAC12343F0004343EA505323FA4C
:1012400002F070474FF00000704750EA013002D1C1
:101250004FF0FF3070474FF0000070474FEA4102F7
:10126000B2F1E04324BFB3F5001CDCF1FE5C0DD904
:1012700001F0004C4FEAC0024CEA5070B2F1004F4E
:1012800040EB830008BF20F00100704711F0804F51
:1012900021D113F13872BCBF01F00040704741F416
:1012A00080114FEA5252C2F11802C2F1200C10FA1A
:1012B0000CF320FA02F018BF40F001004FEAC123FE
:1012C0004FEAD32303FA0CFC40EA0C0023FA02F3A2
:1012D0004FEA4303CCE77FEA625307D150EA013378
:1012E0001EBF4FF0FE4040F44000704701F0004048
:1012F00040F0FE4040F40000704700BF80F0004026
:1013000002E000BF81F0004142001FBF5FEA4103DD
:1013100092EA030F7FEA226C7FEA236C6AD04FEADD
:101320001262D2EB1363C1BFD21841404840414022
:10133000B8BF5B42192B88BF704710F0004F40F4D4
:10134000000020F07F4018BF404211F0004F41F4F0
:10135000000121F07F4118BF494292EA030F3FD0BC
:10136000A2F1010241FA03FC10EB0C00C3F12003CF
:1013700001FA03F100F0004302D5494260EB40005E
:10138000B0F5000F13D3B0F1807F06D340084FEAC9
:10139000310102F10102FE2A51D2B1F1004F40EBBE
:1013A000C25008BF20F0010040EA03007047490026
:1013B00040EB0000013A28BFB0F5000FEDD2B0FAC3
:1013C00080FCACF1080CB2EB0C0200FA0CF0AABFE6
:1013D00000EBC25052421843BCBFD0401843704784
:1013E00092F0000F81F4000106BF80F4000001328A
:1013F000013BB5E74FEA41037FEA226C18BF7FEA61
:10140000236C21D092EA030F04D092F0000F08BFA2
:101410000846704790EA010F1CBF0020704712F089
:101420007F4F04D1400028BF40F00040704712F1C8
:1014300000723CBF00F50000704700F0004343F02D
:10144000FE4040F4000070477FEA226216BF084663
:101450007FEA23630146420206BF5FEA412390EA26
:10146000010F40F4800070474FF0000304E000BF1C
:1014700010F0004348BF40425FEA000C08BF7047CD
:1014800043F0964301464FF000001CE050EA010291
:1014900008BF70474FF000030AE000BF50EA0102A6
:1014A00008BF704711F0004302D5404261EB410193
:1014B0005FEA010C02BF84460146002043F0B643B8
:1014C00008BFA3F18053A3F50003BCFA8CF2083ADD
:1014D000A3EBC25310DB01FA02FC634400FA02FCE6
:1014E000C2F12002BCF1004F20FA02F243EB0200ED
:1014F00008BF20F00100704702F1200201FA02FC4F
:10150000C2F1200250EA4C0021FA02F243EB020041
:1015100008BF20EADC7070474FF0FF0C1CEAD05285
:101520001EBF1CEAD15392EA0C0F93EA0C0F6FD046
:101530001A4480EA010C400218BF5FEA41211ED024
:101540004FF0006343EA501043EA5111A0FB013110
:101550000CF00040B1F5000F3EBF490041EAD371E5
:101560005B0040EA010062F17F02FD2A1DD8B3F161
:10157000004F40EBC25008BF20F00100704790F0D0
:10158000000F0CF0004C08BF49024CEA502040EA22
:1015900051207F3AC2BFD2F1FF0340EAC2507047E8
:1015A00040F400004FF00003013A5DDC12F1190F26
:1015B000DCBF00F000407047C2F10002410021FA98
:1015C00002F1C2F1200200FA02FC5FEA310040F1B0
:1015D000000053EA4C0308BF20EADC70704792F029
:1015E000000F00F0004C02BF400010F4000F013A61
:1015F000F9D040EA0C0093F0000F01F0004C02BF5C
:10160000490011F4000F013BF9D041EA0C018FE7CA
:101610000CEAD15392EA0C0F18BF93EA0C0F0AD0D0
:1016200030F0004C18BF31F0004CD8D180EA0100F6
:1016300000F00040704790F0000F17BF90F0004F8F
:10164000084691F0000F91F0004F14D092EA0C0F71
:1016500001D142020FD193EA0C0F03D14B0218BF04
:10166000084608D180EA010000F0004040F0FE404A
:1016700040F40000704740F0FE4040F440007047E6
:101680004FF0FF0C1CEAD0521EBF1CEAD15392EA65
:101690000C0F93EA0C0F69D0A2EB030280EA010C55
:1016A00049024FEA402037D04FF0805343EA1111EE
:1016B00043EA10130CF000408B4238BF5B0042F14C
:1016C0007D024FF4000C8B4224BF5B1A40EA0C00F1
:1016D000B3EB510F24BFA3EB510340EA5C00B3EB23
:1016E000910F24BFA3EB910340EA9C00B3EBD10F11
:1016F00024BFA3EBD10340EADC001B0118BF5FEA63
:101700001C1CE0D1FD2A3FF650AF8B4240EBC2508B
:1017100008BF20F0010070470CF0004C4CEA50204C
:101720007F32C2BFD2F1FF0340EAC250704740F49B
:1017300000004FF00003013A37E792F0000F00F08D
:10174000004C02BF400010F4000F013AF9D040EA0B
:101750000C0093F0000F01F0004C02BF490011F49F
:10176000000F013BF9D041EA0C0195E70CEAD15397
:1017700092EA0C0F08D142027FF47DAF93EA0C0F7E
:101780007FF470AF084676E793EA0C0F04D14B0262
:101790003FF44CAF08466EE730F0004C18BF31F014
:1017A000004CCAD130F000427FF45CAF31F000430E
:1017B0007FF43CAF5FE700BF4FEA4002B2F1FE4F5B
:1017C0000FD34FF09E03B3EB12620DD94FEA002303
:1017D00043F0004310F0004F23FA02F018BF4042DC
:1017E00070474FF00000704712F1610F01D14202C3
:1017F00005D110F0004008BF6FF0004070474FF077
:101800000000704742000ED2B2F1FE4F0BD34FF0F2
:101810009E03B3EB126209D44FEA002343F0004366
:1018200023FA02F070474FF00000704712F1610F89
:1018300001D1420202D14FF0FF3070474FF000005B
:10184000704700BF10B5054C237833B9044B13B172
:101850000448AFF300800123237010BD1002002064
:101860000000000094AF000808B5034B1BB103490A
:101870000348AFF3008008BD000000001402002000
:1018800094AF000870B505460C4651B10846FFF705
:101890003FF82B68024621462846BDE870405B6849
:1018A000184770BDF8B505460C4C78222146201D1E
:1018B00008F058FF002625600025094F54F8041B46
:1018C00057F8040BFFF728FE01462846FFF71CFDDA
:1018D00001361F2E0546F1D1F8BD00BFB003002030
:1018E0009CB10008012208B5104B11491A70114B28
:1018F0000F481A68C1F884205B68C1F8883000215D
:1019000000F07CFD0C4801F073F80B4800F0BCFFC0
:10191000094801F00FF800220748114601F03EF88F
:10192000BDE808400549044808F05BB93C020020C6
:101930002C040020DCB70008A0030020BCAF000886
:10194000F8B5184B07461868174B1E68B04227D0E9
:10195000801BFFF78DFD01461448FFF791FE0546F9
:10196000134B1860134BB81B1C68FFF781FD294609
:10197000FFF7D2FD054604EBD4704010FFF778FD69
:1019800001462846FFF7C0FCFFF716FF90FBF4F076
:101990006043FFF76DFDFFF70FFF074B1860F8BDC1
:1019A0000020FAE7340200203802002000007A44C8
:1019B00030020020000000202C02002038B5C42096
:1019C00008F04EFD04460028F9D118250121C52054
:1019D00008F00CFDC42008F043FD6400002104431E
:1019E000C52008F003FD013DF0D10121C52008F01C
:1019F000FDFC2946C52008F0F9FC230248BF44F04D
:101A00007F44204638BD000013B500240223102275
:101A100027210094054800F013FF22460449054899
:101A200002B0BDE8104007F0D9BF00BFA0030020FE
:101A300000440040880200201FB501681048FFF7ED
:101A400021FF0F480F49FFF71DFF142008F048FD44
:101A50000B4807F0BDFE10B905B05DF804FB01A806
:101A6000074908F063F90849084808F0BAF801A9DD
:101A7000064808F0CFF801A808F06CF9E8E700BFC5
:101A800088020020CAAF0008CDAF00087806002009
:101A90001FB53C4901A808F09FF901A8FFF7CCFF4A
:101AA00001A808F057F9642008F01AFD364901A88A
:101AB00008F092F901A8FFF7BFFF01A808F04AF962
:101AC000642008F00DFD314901A808F085F901A84E
:101AD000FFF7B2FF01A808F03DF9642008F000FD0F
:101AE0002B4901A808F078F901A8FFF7A5FF01A884
:101AF00008F030F9642008F0F3FC264901A808F04A
:101B00006BF901A8FFF798FF01A808F023F96420FA
:101B100008F0E6FC204901A808F05EF901A8FFF7EB
:101B20008BFF01A808F016F9642008F0D9FC1B49C6
:101B300001A808F051F901A8FFF77EFF01A808F0FD
:101B400009F9642008F0CCFC154901A808F044F913
:101B500001A8FFF771FF01A808F0FCF8642008F065
:101B6000BFFC104901A808F037F901A8FFF764FF8E
:101B700001A808F0EFF8C82005B05DF804EB08F004
:101B8000AFBC00BFD8AF0008E7AF0008FCAF00084B
:101B900006B0000815B0000823B0000830B00008F7
:101BA0003DB000084AB0000830B549BA91B043BA18
:101BB000ADF80A1010462249ADF80830FFF7ACFC2A
:101BC000FFF720FE40BAADF80C001E4904A808F04B
:101BD00003F9002402AD15F8012B1B4901A808F0F8
:101BE0009FFD013401A904A808F099F9062CF2D14F
:101BF00016490AA808F0F0F80A22214607A808F0BA
:101C000039F907A90AA808F0A6F9114908F0AFF9AF
:101C100004A908F0A0F901460DA808F0FEF80DA8E7
:101C2000FFF70AFF0DA808F095F807A808F092F84A
:101C30000AA808F08FF804A808F08CF811B030BD9D
:101C400000007A44CCAF000853B0000858B0000838
:101C500063B00008000000002DE9F04192B0FFF7EA
:101C6000ADFE5D4E5D4C3060FFF702FCFFF71AFEE3
:101C7000FFF7A2FD40112060C12008F043FBFFF7F1
:101C8000F3FBFEF7B1FF50A3D3E90023FFF72EF9D2
:101C90004FA3D3E90023FEF7FFFF02460B46FEF7F2
:101CA00045FEFFF7DBFA4E4D4E4B28602068DFF80B
:101CB00038811860FFF744FE4C4903A808F08CF8FF
:101CC0000A223168684608F0E7F8694603A808F078
:101CD00042F9474908F04BF906460A22216806A84E
:101CE00008F0DAF8304606A908F035F9414908F05D
:101CF0003EF906460A22D8F8001009A808F0A8F80C
:101D0000304609A908F027F93B4908F030F90646A2
:101D10003A4F0A2239680CA808F09AF830460CA904
:101D200008F019F9364908F022F906460222296816
:101D30000FA808F0C3F830460FA908F00CF90146C7
:101D4000304807F067FF0FA808F004F80CA808F067
:101D500001F809A807F0FEFF06A807F0FBFF684698
:101D600007F0F8FF03A807F0F5FF08F0B7FB264ED1
:101D70003368C01A254BB0F5C87F186014DD1120F8
:101D8000D8F8001008F032FB214B2A681888B4F903
:101D90000010FFF709FF1F491A4807F045FF00230D
:101DA0003B6008F09BFB3060002008F059FB38B125
:101DB000194B1B7823B912B0BDE8F041FFF792BD73
:101DC00012B0BDE8F08100BF0000000000FEAF408F
:101DD0006666666666660A40540200205C02002061
:101DE00044020020580200204802002065B000088C
:101DF00071B000087EB000088AB0000840020020E0
:101E00009AB00008780600204C0200205002002002
:101E100004000020A4B000083C02002010B54FF4DC
:101E2000E131474806F00AF906224FF416514548B9
:101E300007F046FE4449424807F0F6FE41F288307A
:101E400008F04EFB0121112008F072FA0121102048
:101E500008F06EFA01210F2008F06AFA01210D2026
:101E600008F066FA01210E2008F062FA0221084605
:101E700008F05EFA0221C82008F05AFA0221C720B1
:101E800008F056FA0221C62008F052FA2F4B3049CA
:101E90001A682F48C1F884205B68C1F88830002197
:101EA00000F0ACFA00210E2008F0A0FAC82008F0DB
:101EB00017FB0021112008F099FA0121102008F0E9
:101EC00095FA01210F2008F091FA00210D2008F069
:101ED0008DFA4FF47A7008F003FB0D20012108F011
:101EE00085FA642008F0FCFA164807F071FC0446F5
:101EF000E0B940F6B83008F0F3FA2146C42008F003
:101F000017FA0121C52008F013FA2146C52008F070
:101F10006DFA4FF4FA6008F0E3FAFFF7B9FD2146D5
:101F2000BDE8104028220B4808F035BC054807F0F2
:101F30000BFE0A220146024807F0B7FED4E700BFB5
:101F40007806002088020020B3B00008DCB7000843
:101F50002C0400206002002000207047028BC08A01
:101F6000101A70470346C28A018B914281BF0169F2
:101F7000885C0132DA8298BF4FF0FF307047028BE5
:101F8000C38A9A4286BF0269D05C4FF0FF30704727
:101F9000806DD0F8DC302BB10023D43020F8B23C77
:101FA000C36818477047836810B5044613B103220D
:101FB00001469847204610BD70B54FF47A730E461F
:101FC0000021C0E90113034615462B4A044643F895
:101FD000C42BC0F8C4109C22C3E90111C0E934111C
:101FE000C0E93611C0F8E010283008F0D4FBF3B295
:101FF000222B19D8214A06F4E06652F823301E43FA
:10200000EBB2222BC4F8846022D81C4A05F4E065A8
:1020100052F823301D4300232046C4F88850E36162
:1020200023842361A38270BD06F0C002C02A0CD1B4
:10203000C92B0AD8124B06F03F0253F822200F4B4F
:1020400006F4E06653F82230D9E74FF0FF36D7E7C1
:1020500005F0C002C02A0CD1C92B0AD8084B05F0E4
:102060003F0253F82220054B05F4E06553F8223077
:10207000D0E74FF0FF35CEE720B20008DCB700080C
:10208000B4B7000838B50446283000F083FAE06998
:1020900018B108F059FA0023E3610025206925846E
:1020A00010B108F051FA2561A58238BD38B5054652
:1020B0000446074B45F8D43BFFF7E4FF2846FFF7FB
:1020C00072FF04F1C400FFF76EFF204638BD00BF69
:1020D00020B200080123994080F824300023817643
:1020E0004384704738B5838A05468B420C4609D233
:1020F000202938BF20240069214608F0DBFA10B1FE
:102100002861AC8238BDFEE773B5846D0546D4F80E
:10211000CC30866EE3B1E28A238B9A4218D33146E3
:102120002046FFF7DFFF3246206905F1740108F011
:1021300087FB0023E382D4F8CC30268301960BB9C9
:1021400008F024FFD4F8D03001A904F1C400984766
:1021500002B070BDB1F5806F70B505460C4610D861
:10216000038C99420AD920290E4638BF2026C0691F
:10217000314608F09FFA18B1E8612E84204670BD00
:10218000FEE70024FAE713B590F8243004468DF8F2
:1021900007107BB1418C0131FFF7DCFF40B101201A
:1021A000638C9DF80710E269D154638C013363841A
:1021B00002B010BD01220DF10701283000F028FA0D
:1021C000B0FA80F04009F3E770B590F82430044687
:1021D0000E46154693B1418C1144FFF7BBFF10B971
:1021E0000025284670BD638CE0692A4618443146B4
:1021F00008F026FB638C2B446384F2E792B228300C
:1022000000F006FA0028EBD1EBE70346006918B1AD
:1022100000219A8A08F0BFBA70470346C06918B116
:1022200000211A8C08F0B7BA704738B50446D1B906
:102230004FF42A03A36594F8BE30012B16D1638CAA
:10224000E269A17E04F1280000F01BFA042828BFEF
:102250000420C5B22046FFF7E0FF0023638484F822
:102260002430284638BD4FF02A43E3E70425F8E739
:102270000121FFF7DABF38B500250446C582058382
:10228000FFF7C3FF20466584FFF7C7FF38BD000096
:10229000F8B50446D0F8840007F0AEFF002108F03E
:1022A00047F8D4F88420C2F30313042B48D8284DF0
:1022B000284E55F8233002F00F029B6856F8222072
:1022C000DB4303EA12239BB2002B3FD0D4F88800F3
:1022D00007F092FF012108F02BF81F4BD4F888007B
:1022E0001B681E4CC0F30311B3FBF4F30A2404294A
:1022F00004FB03F300F00F0225D8142756F8222020
:10230000174CC2F30F2255F821C0CCF81420D4F892
:1023100004E06668A6EB0E06B342FADCCCF81020A7
:10232000D4F804C06668A6EB0C06B342FADC013FA1
:10233000E9D107F061FF3946BDE8F84007F0F8BF82
:1023400000239B68FFDE00235B61FBE7F8BD00BF55
:102350001000002080B200083000002040420F0032
:10236000001000E02DE9F04100260446C6820683F5
:102370001F460D469046FFF748FF20466684A67626
:10238000FFF74BFFD4F8DC30C4F8804033B104F1E0
:10239000D401032208469847C4E93766002384F82D
:1023A00024306B0084F825306B1E5D425D41204671
:1023B00084F8BE5084F8BF8084F8C07004F128050A
:1023C000FFF766FF284694F82520094900F02AF80F
:1023D00094F8BE304BB92846064900F0AAF92846C1
:1023E000BDE8F041044900F09DB9BDE8F08100BFAF
:1023F000A0860100911F0008092100080A46002359
:102400000121FFF7AFBF0000032202210148FFF7BF
:10241000D3BD00BF2C0400200148FFF747BE00BF1A
:102420002C040020F7B50D4617460446002800F09E
:102430009F805049C06D05F003FA4F490646206E53
:1024400005F0FEF90146002E00F09280002800F011
:102450008F80304605F01BFA2060002800F088804D
:10246000464B261D984260D103F5DE33DA6942F40B
:102470000012DA61DA6902F400120092009A1A6915
:1024800042F400121A611A6922F400121A6142F22F
:102490001F03A4F864303A4B1E603749206E05F0E4
:1024A000B7F93449E06D05F0B3F9364B21689D4228
:1024B00058D9354B9D4203D9344B9D4288BF0023E8
:1024C0004FF480420025C4E901134FF48043C4E96E
:1024D000053594F8973002215B1B18BF01239B013F
:1024E000236294F89830C4E903275B1B18BF0123CB
:1024F000DB0163622A4694F96400E56184F8415087
:1025000000F09CFE94F9640000F0C8FE2A46022107
:1025100094F9650000F092FE94F9650000F0BEFEAB
:10252000304600F0D9FFF8B1FEE7194B9842B4D11C
:1025300003F5DC33DA6942F48002DA61DA6902F425
:1025400080020192019A1A6942F480021A611A69A2
:1025500022F480021A6142F22123A4F86430084B6D
:102560005E609AE70022ADE70223A06684F895300A
:1025700003B0F0BD88B6000858B60008005400400B
:1025800010050020A0860100801A060040420F00BE
:102590000058004010B5044690F9640000F08CFE2D
:1025A00094F9650000F088FE201D01F03EF803213B
:1025B000206E05F06DF80321E06D05F069F82368E1
:1025C000104A93420DD1104B1A6942F400121A615D
:1025D0001A6922F400121A61DA6922F40012DA612F
:1025E00010BD0A4A9342FBD1074B1A6942F480029C
:1025F0001A611A6922F480021A61DA6922F48002EF
:10260000EDE700BF005400400010024000580040B9
:10261000202A30B514D800239CB2A24207D890F8E3
:1026200094301344DBB280F89430002030BD90F831
:102630009440CD5C1C44044484F874500133EBE7AF
:102640000120F3E710B564230446043001F006F8D6
:10265000022810D0032806D090B194F84130202BE6
:1026600018BF042004E094F84130202B18BF052047
:1026700008BF022004E094F84130202B18BF062048
:1026800010BD2DE9F34704460E4691461F4600F063
:1026900069FA80463FB901223146204602B0BDE8C2
:1026A000F047FFF7CFBF0025D4F830A004343B46F5
:1026B0004A4631462046CDF800A001F07BF80228BA
:1026C00007D100F04FFAA0EB0805642DEFD90620E2
:1026D0001FE008BB00F046FA0646204601F0C2FFA4
:1026E000202809D0632D07D800F03CFA851B20462E
:1026F00001F0BBFF0028F0D0204601F0B6FF632DAB
:102700000CD882060AD443070AD4003818BF012027
:10271000800002B0BDE8F0870420FAE70520F8E762
:102720000320F6E720B119B1C166043001F020B9E9
:10273000704720B119B10167043001F019B9704731
:1027400070B590F891300446012B0D46A0F10406B7
:1027500009D1436E3BB1836E30469847022384F81B
:102760009130002363668DB9E36E84F891501BB1FC
:10277000304684F890509847204694F8902004F111
:1027800070012023BDE8704001F07CB800230122D5
:10279000636684F89120616E2046743131440423CD
:1027A000BDE8704001F0A9B810B590F8913004462A
:1027B000012B04D1436E13B1836E04389847022372
:1027C00084F89130002320466366BDE8104001F094
:1027D000CFB8436E1F2BDEBF436E0133436690F8C4
:1027E0009130012BDAB205D1416E042370310144DE
:1027F00001F083B87047002380F89030704790F85C
:1028000092300BB901F0B4B870470000014B186862
:1028100001F02EBA10050020014B186801F082BEAD
:1028200010050020014B586801F022BA1005002065
:10283000014B586801F076BE10050020704700007B
:1028400030B5002543739DF80C3045608373082331
:10285000024D017205600273C37330BD4CB20008B3
:1028600038B504460D46017A0648FFF733FCE17B94
:1028700004482943FFF787FCBDE838400148FFF7CB
:10288000F7BC00BF2C04002008230021C373FFF70E
:10289000E7BF0000F8B5114F0C4641F004010646B1
:1028A000FFF7DEFF3B680E4A0E4DB3FBF2F269689C
:1028B0006B685B1A9A42FBDC304604F0FB01FFF7C1
:1028C000CFFF074A3B686968B3FBF2F332225343F8
:1028D00004484268521A9342FBDCF8BD30000020E5
:1028E00040420F00001000E038B504460D46FFF7E7
:1028F000B7FF29462046BDE83840FFF7CBBF70B58B
:102900000D461446064621F00F011143FFF7ECFF78
:1029100044EA05113046BDE87040C9B2FFF7E4BF94
:1029200008B50122FFF7EBFF012008BD0022FFF7E9
:10293000E6BF0000012108B5FFF7F8FF074B084A82
:102940001B680849B3FBF2F34FF4FA62534348683B
:102950004A68121A9342FBDC08BD00BF3000002019
:1029600040420F00001000E0022108B5FFF7DEFF33
:10297000074B084A1B680849B3FBF2F34FF4FA62AD
:10298000534348684A68121A9342FBDC08BD00BFF3
:102990003000002040420F00001000E07FB50646E6
:1029A00015460C460C4B0DF1100C0FCB0CE90F002B
:1029B000737B3046AB423CBF03F1FF33DDB204AB67
:1029C00003EB850555F8101C214461F07F01C9B265
:1029D000FFF7ACFF04B070BDACAF000808B5817A5A
:1029E00041F00402827241F00C01FFF79FFF08BD25
:1029F00070B5044600213548FFF700FD627B012ACF
:102A000094BF00230123DB006372A37B1BB1012A67
:102A100004BF04236372322007F062FDE17B20468D
:102A2000FFF71EFF2A4D4FF47A7007F059FD302151
:102A30002046FFF759FF274A2B68274EB3FBF2F3D6
:102A400041F29412534371687268521A9342FBDC4C
:102A500030212046FFF748FF1E4A2B687168B3FB00
:102A6000F2F341F2941253431B4E7268521A93428E
:102A7000FBDC30212046FFF737FF164A2B687168D0
:102A8000B3FBF2F39622534313484268521A93421F
:102A9000FBDC20462021FFF727FF617A204641F02A
:102AA0002001FFF743FF04232046A372FFF796FFA0
:102AB0002046FFF73FFF02232046E3720621FFF77F
:102AC00035FF2046BDE87040FFF74EBF2C040020C4
:102AD0003000002040420F00001000E0704700006E
:102AE00038B50E4B05461A784FF47A73B3FBF2F300
:102AF0000B4A1068B0FBF3F000F0F0FB044658B945
:102B00000F2D09D8024629464FF0FF3000F096FB02
:102B10002046044B1D6038BD0120FCE70800002062
:102B2000300000200C000020074A08B5136803207D
:102B300043F01003136000F06FFB0020FFF7D0FF9D
:102B4000FFF7CCFF002008BD00200240034A044BE1
:102B500011681B780B441360704700BF18050020F4
:102B600008000020014B1868704700BF18050020BE
:102B7000F7B5002604460D460196FFF7F3FF2368DC
:102B800007469A68D10508D50120A36A84F8246015
:102B900043F02003A36203B0F0BD5A68D20503D40A
:102BA000DB6A13F4700F3DD03D4B02201E6802F02B
:102BB000D7FE23683B4A1969B6FBF0F611423A4A40
:102BC00051D1D868394908424DD1196911425BD1B8
:102BD000DA68374B1A420CBF142329235E43019B4A
:102BE000B34223D26A1C04D0002D53D1019BB342BF
:102BF0000AD3019B01330193F1E76E1C13D065B931
:102C000023681B6898070DD4A36A032043F00403CC
:102C1000A362002384F82430BDE7FFF7A3FFC01BA5
:102C2000A842EDD8226813689907E6D56FF0120321
:102C300022681360A36A43F40073A362936803F4E9
:102C40006023B3F5602F0CD1237B53B9A36A23F41F
:102C50008073A362A36ADB0403D4A36A43F0010375
:102C6000A362002097E71969114203D1D968104A7D
:102C700011420BD019690F4A114209D1DB68134286
:102C80000CBF5423FC23A9E72923A7E75423A5E776
:102C9000FC23A3E7FFF766FFC01BA842A6D8A8E75E
:102CA00030000020244992249224491224499200A1
:102CB00092244900499224000368D86C70470000B0
:102CC000002373B5019390F824300446012B6CD097
:102CD000012380F824304D680268062D086805EB52
:102CE000850322D81F26556B053B9E4025EA060525
:102CF00000FA03F32B43536309288B6800EB40056C
:102D00004FF0070129D9D6681E3DA94026EA0101E6
:102D1000AB400B43D360A0F11003012B25D9002059
:102D2000002384F8243002B070BD0C2D4FF01F0535
:102D300009D8166B233B9D4026EA050500FA03F3EC
:102D40002B431363D8E7D66A413B9D4026EA05052D
:102D500000FA03F32B43D362CEE71069A94020EABF
:102D60000101AB400B431361D9E7114B9A4216D1D5
:102D700093681B02D3D49368102843F40003936034
:102D8000CDD10C4B0C4A1B68B3FBF2F30A22534320
:102D90000193019B002BC2D0019B013BF8E7A36A82
:102DA000012043F02003A362BAE70220BBE700BF83
:102DB000002401403000002040420F00806A70472C
:102DC000002337B50193036804469A68D20702D5F9
:102DD000002003B030BD9A6842F001029A60144BA3
:102DE000144A1B68B3FBF2F30193019BE3B9FFF7AD
:102DF000B9FE054623689B68DB07E9D4FFF7B2FEFE
:102E0000401B0228F6D923689B6813F00103F1D117
:102E1000A26A012042F01002A262E26A84F8243021
:102E200042F00102E262D4E7019B013BDCE700BF14
:102E30003000002040420F0010B590F824300446C6
:102E4000012B54D0012380F82430FFF7B9FF00286C
:102E500049D1A36A274A23F4407323F0010343F4C2
:102E60008073A3622368934204D123494A6812F411
:102E7000702F2ED1A26A22F48012A2625A685205E3
:102E800041BFA26A22F4405242F48052A262A26A76
:102E900012F480521CBFE26A22F00602E2620022B3
:102EA00084F824206FF002021A609A6802F460220B
:102EB000B2F5602F13D10F4A934205D1A2F580627B
:102EC000526812F4702F0AD19A6842F4A0029A60F4
:102ED00010BDA26A42F48012A2624A68CFE79A68E3
:102EE00042F48012F3E7002384F82430F0E7022054
:102EF000EEE700BF002801400024014038B5036818
:102F000004469A68D10701D4002038BD9A6822F09F
:102F100001029A60FFF726FE054623689B68DB07DF
:102F2000F2D5FFF71FFE401B0228F6D923689B68E5
:102F3000DA07F2D5A36A012043F01003A362E36A23
:102F400043F00103E362E0E7F8B5044600286DD0E2
:102F5000836A23B9C36280F8243003F0F7FF204668
:102F6000FFF7CCFFA36A13F0100361D100285FD1F3
:102F7000A26A616822F4885222F0020242F0020240
:102F8000E569A668A262227B2943B6F5807F41EA03
:102F9000420136D0771E7D427D412D02277D012FD3
:102FA00006D182BBA269013A45EA423242F4006589
:102FB0002268B6F5807F576827F4694745EA070518
:102FC000556097681D4D05EA070545EA01059560BE
:102FD00001D0012E02D12369013B1B05D56A25F4DE
:102FE00070052B43D3629268154B1340994213D15D
:102FF0000023E362A36A23F0030343F00103A36207
:10300000F8BD3546CAE7A26A42F02002A262E26A2F
:1030100042F00102E262CBE7A36A23F0120343F01D
:103020001003A362E36A43F00103E3620120E7E7D0
:10303000A36A43F01003A362F8E700BFFDF7E1FFC6
:10304000FE0E1FFF38B50446002850D0836A43F0B7
:1030500002038362FFF752FF0546002842D16FF05A
:103060001F02236820461A605968224A0A405A60A3
:103070009968214A0A409A60DA6802F07F42DA6071
:103080001A6902F040421A6159691C4A114059619B
:10309000996911409961D9691140D961196A114042
:1030A0001962596A11405962996A0A409A62DA6A49
:1030B000134902F07F42DA62DA6A02F07F42DA6292
:1030C0001A6B02F040421A635A6B02F040425A6394
:1030D0009A6B0A409A639A6B0A409A6303F068FFFE
:1030E000E562A562002384F82430284638BD012516
:1030F000FBE700BF00003FFFF00601FF00F0FFFF0D
:103100000000C0FF10B590F824300446012B11D008
:10311000012380F82430FFF7F1FE38B9A36A23F4C5
:10312000885323F0010343F00103A362002384F8D2
:10313000243010BD0220FCE7002373B5019390F802
:1031400024300446012B62D0012380F82430FFF79D
:10315000D5FE2046FFF734FE054600282FD1A36A8E
:10316000022023F4885323F0020343F00203A362F6
:10317000284B1E6802F0F4FBB6FBF0F676000196D1
:10318000019B03BB2268936843F008039360FFF739
:10319000E9FC064623689A68110718D49A6842F039
:1031A00004029A60FFF7DEFC064623689B685B0713
:1031B00023D4A36A23F0030343F00103A362002393
:1031C00084F8243016E0019B013B0193D8E7FFF718
:1031D000C9FC801B0A28DDD923689B681807D9D54C
:1031E000A36A012523F0120343F01003A362002316
:1031F00084F82430284602B070BDFFF7B3FC801B72
:103200000A28D2D923689B685A07CED5E8E7022559
:10321000F0E700BF3000002007490302CA6803F44A
:10322000E06322F4E0621204120C134343F0BF6324
:1032300043F40033CB60704700ED00E0154B30B530
:10324000DC68C4F30224C4F10703251D042B28BF46
:103250000423062D4FF0FF3594BF0024033C05FAEC
:1032600003F321EA0303A54022EA0502A340002854
:1032700043EA0203ACBF00F16040074A4FEA031380
:10328000DBB2ABBF00F5614000F00F0080F8003307
:10329000135430BD00ED00E014ED00E0002807DB22
:1032A00001234109034A00F01F00834042F8213006
:1032B000704700BF00E100E000280CDB0122064956
:1032C000430900F01F008240203341F82320BFF360
:1032D0004F8FBFF36F8F704700E100E00138B0F10E
:1032E000807F0BD24FF0E023F021054A586182F82D
:1032F00023100020072298611A617047012070474F
:1033000000ED00E0002808DB01224309034900F03A
:103310001F008240603341F82320704700E100E045
:10332000704708B5FFF7FCFF08BD704710B50446AD
:1033300050B1437903F0FF0213B90271FFF7F5FFB3
:1033400001230020637110BD0120FCE790F82120CB
:103350000346022A06D0042282630120002283F859
:10336000202070470268C06B116821F00E011160C7
:10337000116821F00101116001211A6C01FA02F2B9
:103380004260002083F82110E8E7000008B590F8BB
:103390002130022B03D004238363012008BD03687E
:1033A0001A6822F00E021A601A6822F001021A60EE
:1033B000174A93421FD0143293421ED014329342C4
:1033C0001DD0143293421DD0143293421DD01432BA
:1033D000934214BF4FF080734FF480130D4A536033
:1033E000012380F82130002380F82030436B03B1A3
:1033F00098470020D2E70123F0E71023EEE74FF4CF
:103400008073EBE74FF48053E8E74FF48033E5E750
:10341000080002400000024090F8210070470000C0
:10342000044A08B55169014202D0506103F038FFE7
:1034300008BD00BF000401402DE9F84606460F46CE
:1034400091461D464FEA114A3368BAF1010F39D14E
:103450005C6927EA0404A4B2B4FA84F46409A145BF
:1034600001D0002024E06A1CEFD0FFF77BFB089B13
:10347000C01AA84201D8002DE6D1BAF1010F336875
:1034800018D15B6927EA03039BB2B3FA83F35B09A4
:103490009945D9D1002320220120336386F83D20AD
:1034A00086F83E30326C86F83C3042F020023264BE
:1034B000BDE8F8869B69DB43C3F3400383F0010357
:1034C000DBB2E5E79C69E443C4F3400484F0010403
:1034D000E4B2C4E77047000070B5044608B90120A3
:1034E00070BD90F83D3003F0FF021BB980F83C201E
:1034F000FFF7F0FF242384F83D3023681A6822F098
:1035000001021A601A6842F400421A601A6822F432
:1035100000421A6002F08AF93F4B65689D4294BFF1
:103520003E4B3F4B98428CBF00230123002BD6D14A
:10353000394E3C4BB542B0FBF3F388BF4FF496765F
:103540002268516821F03F0141EA030182BF7343C1
:103550004FF47A76B3FBF6F35160116A013321F030
:103560003F010B431362D169431E2B4821F44F41A5
:10357000854221F0FF0132D86D00B3FBF5F340F630
:10358000FC700133034242D0C3F30B031943D161F2
:103590001168D4E9073021F0C00103430B431360E5
:1035A0009168D4E9030321F40341034321F0FF01AF
:1035B0000B439360D168D4E9053021F0FF01034348
:1035C0000B43D3601368002043F0010313602023F2
:1035D000206484F83D30206384F83E0080E7A068D2
:1035E00050B905EB4505B3FBF5F30133C3F30B030A
:1035F0007BB143F40043C9E719206843B3FBF0F300
:103600000133C3F30B0323B143F44043BEE7042368
:10361000BCE70123BAE700BFA08601007F841E003B
:10362000FF083D0040420F00704710B5044698B1B6
:103630002423026880F83D30136823F001031360EF
:10364000FFF7F2FF0020206484F83C0084F83D007E
:10365000206384F83E0010BD0120FCE72DE9FF4700
:1036600004461F4689469246FFF77CFA94F83D309F
:103670000546202B03D0022004B0BDE8F08700905F
:103680001923012220464949FFF7D6FE0028F2D12E
:1036900094F83C30012BEED0012384F83C302368B1
:1036A00000261A6809F0FE09D2075EBF1A6842F0C8
:1036B00001021A601A6822F400621A60242384F856
:1036C0003D303B4B2664E36222684FF001111368E2
:1036D000204643F4807313603B4600220095FFF7B9
:1036E000ABFE236838B11B680320DB0544BF4FF4F1
:1036F00000732364C0E7C3F81090FFF733FA4FF06C
:10370000A0080546226853695269C3F34003C2F317
:10371000802294F83D10A02901D013431DD04FF012
:103720002008206884F83D80436913F0020F036885
:1037300043F40073036025D00023039343690122FF
:103740000393836919490393039B2046192300952A
:10375000FFF772FE88B101208EE7FFF703FA401BE6
:10376000B84200D80FB984F83D8022685369526985
:10377000C3F34003C2F38022CBE784F83D8084F892
:103780003C0079E76FF48063012243610749192304
:1037900020460095FFF750FE0028DCD10136564543
:1037A00092D384F83D8084F83C00D4E702001000F6
:1037B0000000FFFFF7B5002504460095019594F839
:1037C0003D500898202D02D0022003B0F0BD25689E
:1037D0002E68B60503D4082801D001281BD146F273
:1037E000A817274E3668B6FBF7F619277E430196D1
:1037F000019E013E0196019E56B92023266384F85E
:103800003D3084F83E60236C43F020032364DBE703
:10381000AE69B707ECD494F83C60012ED4D02E6882
:10382000F6075EBF2E6846F001062E602E6826F46D
:1038300000662E60212684F83D60102684F83E60E4
:10384000002626646385638DE06261642385236BB3
:1038500062620093009B112B05D1B0F52A0F02D0B4
:10386000B0F12A4F03D12B6843F480732B60002002
:1038700084F83C006B6843F4E0636B60A5E700BF2D
:103880003000002037B5044690F83D0000F02800D5
:10389000282830D100292CD0002A2AD094F83C00C6
:1038A000012828D025682868C0075EBF286840F036
:1038B00001002860286820F400602860292084F82E
:1038C0003D00202084F83E00002020646285628D47
:1038D000E36201906B6961620193AB6984F83C001B
:1038E0000193019B6B68228543F4E0636B6003B036
:1038F00030BD0120FBE70220F9E737B5044690F818
:103900003D0000F02800282830D100292CD0002AC2
:103910002AD094F83C00012828D025682868C007E0
:103920005EBF286840F001002860286820F400602D
:1039300028602A2084F83D00202084F83E000020E2
:1039400020646285628DE36201906B69616201931C
:10395000AB6984F83C000193019B6B68228543F4BA
:10396000E0636B6003B030BD0120FBE70220F9E7A4
:1039700090F83D30202B14D1282380F83D30036887
:1039800000201A68D2075EBF1A6842F001021A606E
:103990001A6842F480621A605A6842F440725A60AF
:1039A00070470220704770477047704790F83D207D
:1039B00008B5036DD2B283B9C36C0268012B836C66
:1039C00005D1DBB21361036D0233036508BDC3F398
:1039D00007231361036D0133F7E7036D012B03D157
:1039E000836C0268DBB2F4E7036D022B2FD1222A2D
:1039F00005D10268136843F480731360EAE7438DCE
:103A00009BB263B1212A0AD1436A026813F8011BF1
:103A100011614362438D013B9BB24385D6E7438DE1
:103A20009BB2002BD2D1212AD0D10268516821F457
:103A3000E0615160116841F400711160202203635C
:103A400080F83D2080F83E30FFF7AFFFBEE7036807
:103A50005A69120644BF00221A61B7E770477047DF
:103A6000002337B546F2A81101932C4B406A1B681E
:103A700090F83D20B3FBF1F323214B4301930368FE
:103A8000D2B2019941BB016C41F020010164446B49
:103A90000CB10021A162816B09B100258D621D6806
:103AA00025F480651D600025458504B1656301B17D
:103AB0004D63196821F00101196090F83D106029EB
:103AC00011D1202380F83D30002380F83E3003647C
:103AD000FFF7C5FF03B030BD0199013901911968A5
:103AE0008905CED4D3E702F02802282A0ED119681E
:103AF00041F001011960196841F4806119600023E7
:103B0000036380F83D20FEF77AFEE3E7202380F888
:103B10003D30002380F83E30F5E700BF3000002044
:103B200010B590F83D2090F83E300446102BD9B2E5
:103B3000D2B2036801D0402913D1222A11D11968C9
:103B400021F400611960596811F4006106D1602AFE
:103B50001EBF202284F83D2084F83E1000222263FC
:103B600007E002F028012829EDD10022226384F821
:103B70003D105A6812F400624FD05A68606B22F40C
:103B800000625A6090F82130012B374B2BD04363F1
:103B9000FFF7FCFB50B12268606B136823F0010350
:103BA0001360202384F83D30436B9847236C19073A
:103BB0001FBF2268536823F4E063536094F83D30DC
:103BC000226CDBB252070DD5282B0BD1274B2022BC
:103BD000E36200232046236384F83D2084F83E30CE
:103BE000FEF7E2FD10BDA06B4363FFF7CFFB00289B
:103BF000DCD023685A69510605D51A69636A1A70C0
:103C0000636A013363622268A06B136823F00103C7
:103C10001360202384F83D30C6E794F83D106029F6
:103C200015D1202184F83D1022645A69520605D529
:103C30001A69636A1A70636A0133636222682046F4
:103C4000136823F001031360FFF709FFAEE75A6919
:103C5000500605D51A69636A1A70636A0133636294
:103C60002046FEF7CCFDA1E7613A00080000FFFF07
:103C7000F0B5044603688FB05A68C66A90F83E00F3
:103C800094F83D101028C5B2C9B202D0402D40F0C2
:103C9000E5829F69586910F0010F07D1B6F52A0F28
:103CA00002D0B6F12A4F51D10FB0F0BD96054DD5D7
:103CB000E26AB2F52A0F0CD10122E26294F83E20AA
:103CC000402A11D1226D52B9626C02F0FE021A61D3
:103CD000EAE7E26AB2F12A4FF0D10822EDE7626C1E
:103CE00042F00102D2B2F2E72269B2F5804F1AD156
:103CF00094F83D20212A626C11D102F0FE021A6173
:103D0000626B0AB1926A2AB9A26B002ACCD0926A7D
:103D1000002AC9D05A6842F400625A60C4E742F0EF
:103D20000102D2B2EBE7226D32B9626CD21102F01D
:103D3000060242F0F002CAE7226D012AB4D1626C99
:103D4000D21102F0060242F0F102C0E7060703D5E5
:103D5000960501D5626CE4E7860740F1F080960590
:103D600040F1ED8094F83E10E26A256B94F83D0036
:103D7000C9B2222840F0DB80206D40B9402906D12D
:103D800000905A6900929B690093009B8CE7216D1B
:103D900089B92069B0F5404F0DD101915A6901925E
:103DA0009A690192019A1A6842F480721A60236D2E
:103DB0000133236578E7618D89B251B902915A695F
:103DC00002929A690292029A1A6842F400721A6088
:103DD00019E0618D89B2012949D112F5803F1BD1CB
:103DE0001A6822F480621A605A6812F400620CD0D9
:103DF0001A6822F480621A60002203925A690392C0
:103E00009B690393039B0023D3E704925A690492AE
:103E10009A690492049AD7E7082A1CD0202A1AD05B
:103E2000122D0DD1012A16D11A6822F480621A606F
:103E3000002205925A6905929B690593059BE2E76A
:103E4000102AF1D8864941FA02F2D707ECD41A6851
:103E500042F48062EBE71A6822F480621A60002262
:103E600006925A6906929A690692069AACE7618DA3
:103E700089B2022938D1102A03D87A49D140CE0715
:103E800018D4196841F4006119600021079159693B
:103E90000791996907910799196821F48061196060
:103EA00059680D05AFD5202A1BD8072A0ED8012A3C
:103EB000A9D111E0196841F48061196000210891CD
:103EC00059690891996908910899E9E7A2F10801EF
:103ED000654ACA40D00796D55A6842F480525A6063
:103EE00091E712F5803FE3E7196841F480611960BA
:103EF0005968090510D5202A16D8072A06D8012A9C
:103F00000AD15A6842F480525A6005E0A2F10801D1
:103F1000554ACA40D207F4D4002209925A6909923C
:103F20009B690993099B6EE712F5803FE8E7002241
:103F30000A925A690A929B690A930A9BB4E67F0720
:103F400040F194805E6836053FF5AEAE070600F09E
:103F500004063ED550053CD5002E3DD194F83D20B9
:103F6000258D94F83E10D2B2E06AC9B2C5B9212AB3
:103F700018D1082858D0202856D010F5803F53D0AB
:103F80005A6822F4E0625A6011232363002384F804
:103F90003E302023204684F83D30FFF704FD83E6C1
:103FA000212A05D040297FF47FAE222A7FF47CAEFF
:103FB000628D92B21AB95A6822F48062ADE694F822
:103FC0003E20402A16D120460FB0BDE8F040FFF752
:103FD000EDBC002E3FF468AE97057FF565AE212954
:103FE00039D1E16A94F83D20212A7FF45DAE628DDB
:103FF00092B24AB1626A12F8011B19616262638D62
:10400000013B9BB263854FE608290DD020290BD0D8
:1040100011F5803F08D0596821F4E06159601123FF
:10402000236384F83E20B4E75A68204622F4E06215
:104030005A601A6842F400721A6000232022236337
:1040400084F83D2094F83E2084F83E30402AA4D1E4
:10405000FFF7ABFC28E6402D7FF426AEB3E700BFA8
:10406000EBFFFEFF140001000101000159680E057D
:104070003FF51AAE450600F0040140F18680500578
:1040800040F18380002940F0838094F83D20222A6B
:104090007FF40AAEE06A628D92B2032A14D91A69DB
:1040A000636A1A70636A01336362638D013B9BB27A
:1040B0006385638D9BB2032B7FF4F6AD2268536852
:1040C00023F480635360EFE5E56A022D3FF473AF9C
:1040D000012A3FF670AF0B9146F2A811794A126897
:1040E000B2FBF1F202EB82020B920B9A013A0B92B5
:1040F0000B99D1B9226C204642F0200222645A6802
:1041000022F4E0625A601A69636A1A70636A0133C2
:104110006362638D013B9BB26385202384F83D304D
:1041200084F83E10FEF76BFBBEE51A6812F40072CD
:10413000DBD1196821F480611960596821F4E061CC
:1041400059601969636A1970636A01336362638D28
:10415000013B9BB26385202384F83D3094F83E30C8
:1041600084F83E20402B04D122632046FFF776FCE2
:104170009AE5082801D0202801D1002300E012236D
:1041800020462363FFF710FC8EE500293FF48CAD39
:1041900092057FF589ADE26A608D616A80B204287C
:1041A00009D15A6822F480625A601B690B70636AF5
:1041B0000133636223E7608D80B203280CD1586815
:1041C000042A20F480605860EFD0022AEDD01A68EB
:1041D00022F480621A60E8E7608D80B20228E4D1A0
:1041E000042A33D007D8012A07D0022A2ED0186813
:1041F00040F4007004E0102AF9D1186820F48060BF
:1042000018601B690B70616A4B1C6362638D013B14
:104210009BB2638523681B694B70636A2168013315
:104220006362638D013B9BB263854B6823F44073EB
:104230004B60202384F83D3094F83E30402B4FF003
:10424000000384F83E3005D123638EE7186840F4FC
:104250008060D5E7082A90D0202A8DE7206C20B313
:104260000025586987072FD596052DD5226C02B1F8
:104270009D6994F83D2002F02802282A18D15A6836
:104280002F0622F480625A604FF0000354BFE268A8
:10429000A269C5F3800181F001012046C9B284F80A
:1042A0003C3092B2FEF74CFAFEE49D695869D9E7BA
:1042B00000220C9259690C919B6984F83C200C9364
:1042C0000C9BF1E430000020C60640F1B18095055A
:1042D00040F1AE8094F83D505A68EDB222F4E062AD
:1042E0005A6000220D925A690D921A6842F001023A
:1042F0001A600D9A1A6822F480621A605A681005D2
:1043000020D505F0F702222A4AD1A06B0268526834
:1043100092B26285628D92B21AB1226C42F00402AE
:1043200022645A6822F400625A60FFF775F8012887
:1043300008D0A06B794B4363FFF728F810B1A06B4E
:10434000436B9847638D9BB213B323685A69510737
:1043500009D51A69636A1A70636A01336362638DEF
:10436000013B9BB2638523685A69520609D51A69D5
:10437000636A1A70636A01336362638D013B9BB2A7
:104380006385638D9BB21BB1236C43F004032364EC
:10439000236C13B320460FB0BDE8F040FFF7C0BB5D
:1043A000606B0268526892B26285628D92B21AB1F5
:1043B000226C42F0040222645A6822F400625A60BD
:1043C000FFF72AF80128BDD0606B544B4363FEF71A
:1043D000DDFF0028B6D0606BB2E72A2D06D123633B
:1043E0002823204684F83D30FEF7F3F994F83D3059
:1043F000282B0CD14A4B2022E36200232046236362
:1044000084F83D2084F83E30FEF7CEF94CE4236B6F
:10441000222B02D0222D7FF447AC002320222363DD
:1044200084F83D2084F83E302046FEF7D2F93BE484
:1044300001F0F701212900F0040535D1070627D541
:10444000560525D53DBB94F83D00628DC0B292B2B1
:10445000002A3FF429AC626A12F8015B1D616262B6
:10446000628D013A92B26285628D92B2002A7FF427
:104470001BAC29287FF418AC5A68204622F48062CD
:104480005A602823216384F83D30FEF7B4F90BE429
:10449000002D3FF409AC95057FF506AC628D92B214
:1044A000002A3FF401ACA5E5400627D5510525D5E6
:1044B0003DBB94F83D20618DD2B289B200293FF412
:1044C000F3AB1969636A1970636A01336362638DC0
:1044D000013B9BB26385638D9BB2002B7FF4E4AB01
:1044E0002A2A7FF4E1AB2268536823F48063536087
:1044F00022232363282384F83D3095E7002D3FF4E1
:10450000D3AB92057FF5D0AB628D92B2002A3FF417
:10451000CBAB1A69636A1A7049E600BF613A0008BA
:104520000000FFFFF8B5036804465F695E6890F815
:104530003E2017F48075D2B20AD016F4807507D0E9
:104540006FF4807101255961196841F400411960C7
:10455000B80506D5F10542BF6FF4007145F00205BC
:104560005961780536D5F10534D5608D94F83D1044
:10457000202AD4F830C080B2C9B25FD100285DD102
:1045800001F0F700212804D0282957D1BCF1210FD0
:1045900054D194F83D20E16AD2B2082901D02029F3
:1045A0002AD1282A28D12E4A2046E2625A6822F4CB
:1045B000E0625A606FF480625A611A6822F4806285
:1045C0001A6000232022236384F83D2084F83E30C3
:1045D000FEF7EAF83A053FD5F3053DD56FF40062E2
:1045E000236845F008055A61236C20461D43256465
:1045F000BDE8F840FFF794BA212A1BD11849E162BF
:1046000022630021202284F83D2084F83E105A685D
:1046100022F4E0625A606FF480625A611A6822F4F0
:1046200080621A605A69100648BF19612046FEF779
:10463000E2F8CFE76FF480625A61CBE76FF48061F4
:10464000102A596145F0040501D0402AC2D11A68E8
:1046500042F400721A60BDE7002DC5D1F8BD00BF5D
:104660000000FFFF90F83D007047006C7047F8B500
:104670000446E0B190F8913203F0FF021BB980F8D4
:10468000902204F05FFE032384F891320023254634
:10469000637155F8040B01F0C0FE95E80E00206828
:1046A00001F0ABFE014628B1022384F891320125C6
:1046B0002846F8BD206801F0BAFE0028F4D1024671
:1046C0000127267904F11003C1B28E4203F12803B9
:1046D00018D800210A4604F5A873C8B2864203F12F
:1046E00028031BD895E80E00206801F0A2FE0546BD
:1046F0000028D9D101236073206884F8913202F038
:104700004DF9D5E743E9062203F8277C03F8281C76
:1047100003F8252C43F8102C0130D5E743E9062295
:1047200003F8272C03F8280C03F8252C43F8102C49
:104730000131D2E738B590F890320446012B10D001
:10474000012580F89052006801F05EFE294620465F
:1047500000F006FE206802F01FF9002084F89002A5
:1047600038BD0220FCE710B590F890220446012ADB
:104770000AD00122417380F89022006802F006F905
:10478000002084F8900210BD0220FCE72DE9F04FD4
:10479000044687B0006802F003F910F4004500F009
:1047A00025844FF02809C54E2068B0F8443019041C
:1047B00002D407B0BDE8F08FB0F84470B9B217F07A
:1047C0000F0740F0BF8011F0100126D103889BB283
:1047D000334043F400430380B0F85030227C9BB256
:1047E00003EBC20300EB4303B3F80434626AC3F380
:1047F00009031A44E3622046626204F004FE637B0C
:10480000002BD1D0A26A002ACED1637B216843F06D
:104810008003A1F84C306273C6E70588ABB215F48B
:10482000006521D0B0F8503094F850219BB203EBD2
:10483000C20300EB4303B3F80C34B4F85621C3F3BE
:104840000903C4F86C3104F5267102F0F0FA22680D
:104850002046138823F070031B051B0D43F08003D3
:10486000138004F0C1FD9FE71B049DD5038823F04E
:1048700070031B051B0D43F080030380B0F850301C
:1048800094F850219BB203EBC20300EB4303B3F84F
:104890000C34C3F30903C4F86C318BB1D4F8641140
:1048A00071B1B4F8562102F0C2FAD4F86431D4F8E8
:1048B0006C21294613442046C4F8643104F09AFD63
:1048C00021680A88170593B23FF56EAF03F4405391
:1048D000B3F5405F3FF468AFB1F8502001F20C40EF
:1048E00092B2835AD4F86051C3F309033E2D835228
:1048F0001DD9835A6F09ED0608BF07F1FF379BB238
:1049000043EA87236FEA43436FEA53439BB28352E0
:104910000B8823F4804323F070031B041B0C83F4E7
:10492000405343F4004343F080030B803CE7835A39
:10493000002DE7D005F001079BB207EB550543EAD0
:104940008523E3E730F8273019041FFA83F840F194
:10495000F38030F8273009FB074223F070031B0572
:104960001B0D43F0800320F8273092F85C5192F839
:104970005031D2F8641100F5806E95B9B0F85050FE
:10498000ADB2063505EBC3033EF81350C5F3090578
:10499000002D00F0B6802B46B2F8562102F047FAFF
:1049A000AFE092F85351022D40F08A8018F4804510
:1049B0000195B0F850504FEAC30BADB2D2F868C1C0
:1049C00008F0400A5D443CD002353EF81550C5F36E
:1049D0000905654514D94FF0000CC2F868C130F8DC
:1049E000232022F4804222F070021204120C82F47E
:1049F000005242F4004242F0800220F8232006E0F8
:104A0000ACEB050CC2F868C1BCF1000FE7D0BAF1FD
:104A1000000F0DD030F8232022F4E04222F0700283
:104A20001204120C42F4004242F0C00220F823208B
:104A3000002D66D0282202FB07422B46B2F85821EF
:104A4000ACE706353EF81550C5F30905654514D9A0
:104A5000DDF804C0C2F868C130F8232022F4804297
:104A600022F070021204120C82F4005242F400424E
:104A700042F0800220F8232006E0ACEB050CC2F8DF
:104A800068C1BCF1000FE7D0BAF1000F0DD130F8CA
:104A9000232022F4E04222F070021204120C42F4AD
:104AA000004242F0C00220F8232055B3282202FB26
:104AB00007422B46B2F85A2170E700BF0F8FFFFF65
:104AC00030F8235025F4E04525F070052D042D0C19
:104AD00045F4004545F0C00520F8235092F85051A8
:104AE00030F82530ED0013F4804FB0F850309BB211
:104AF0002B4452D002333EF81350C5F30905002D64
:104B00009BD109FB07F16318D3F86C212A44C3F841
:104B10006C21D3F864212A44C3F86421D3F86821B6
:104B20001AB1D3F860319D423FD209FB07432046BA
:104B300093F8501104F05EFC18F0800F3FF434AE8F
:104B4000206809FB07FC30F827309BB2334043F460
:104B5000004320F8273004EB0C03DA7C012A54D1FF
:104B6000002107FB0992A1501A7F82B318F0400878
:104B70005A7C34D002BBB0F850201B7C92B21B018F
:104B800000F2044010441A5AC2F309021A521A5A87
:104B900092B242F400421A5219E006333EF8135022
:104BA000C5F30905002DACD083E701F5A871206895
:104BB000214401F00BFFBFE7012A08D1B0F85020D3
:104BC0001B7C92B200F204401B01104419522823AE
:104BD00003FB0743197C204604F015FCE4E53AB9D1
:104BE000B0F850201B7C92B21B0100F20C40C9E7C8
:104BF000012AECD1B0F850201B7C92B200F20C409C
:104C00001B01104423F80080E1E7197CB0F85050F4
:104C10004FEAC10AADB218F4807B9A6A00F5806E43
:104C2000554417D102353EF81550C5F30905954294
:104C300002D3C3F828B0CEE7521B9A625A6A0CF12D
:104C400010012A445A62DA6A21442A44DA6201F0E5
:104C5000BDFEA9E518F0400C08F4804800F0E4809F
:104C600002353EF815501FFA88F8C5F3090595423C
:104C70002CBF0022521B9A62002A55D1282303FB25
:104C800007435B7C002B3DD1B0F8502000F2044577
:104C900092B20B011544EA5AC2F30902EA52EA5AE7
:104CA0006FEA42426FEA524292B2EA52B0F85020A2
:104CB00000F20C4092B21044C25AC2F30902C2522E
:104CC000C25A6FEA42426FEA524292B2C252204640
:104CD00004F099FBB8F1000F00F0E480282303FBF7
:104CE00007432268197C32F8213023F4E04323F093
:104CF00070031B041B0C43F4404343F0800322F871
:104D00002130CFE0012BE2D1B0F850C000F20445D1
:104D10001FFA8CFC65440B01EA52B0F8505000F2C7
:104D20000C40ADB22844D1E7B8F1000F0DD030F8F7
:104D3000212022F4E04222F070021204120C42F40C
:104D4000404242F0800220F821204FF0280E0EFB56
:104D5000074E9EF83420012A40F0A480DEF824207B
:104D600002EB050CCEF824C0DA6A2A44DA62DEF8D7
:104D70003030DEF82020934231D39B1ACEF8303009
:104D8000282303FB07435D7C93B2002D41D1B0F88B
:104D900050E000F204451FFA8EFE7544090135F813
:104DA00001E03E2ACEF3090E25F801E023D94FEAAF
:104DB000521ED2066A5A08BF0EF1FF3E92B242EA74
:104DC0008E226FEA42426FEA524292B26A5228221F
:104DD00002FB0742128B614601F0E8FD62E01BB95D
:104DE0002A468EF83430CBE700228EF83420CEF8F5
:104DF00030201A46C4E70AB96A5AE2E735F801E0FA
:104E000002F001081FFA8EFE08EB52024EEA8222DF
:104E1000DBE7012DDBD1B0F8505000F20442ADB217
:104E20002A4409015352D2E706353EF815501FFABD
:104E300088F8C5F3090595428CBF6246521B9A62F9
:104E4000002A57D1282303FB07435B7C002B3FD16B
:104E5000B0F8502000F2044592B20B011544EA5A12
:104E6000C2F30902EA52EA5A6FEA42426FEA524238
:104E700092B2EA52B0F8502000F20C4092B21044C4
:104E8000C25AC2F30902C252C25A6FEA42426FEAE0
:104E9000524292B2C252204604F0B5FAB8F1000F65
:104EA0003FF41CAF282303FB07472268397C32F804
:104EB000213023F4E04323F040031B041B0C83F058
:104EC000300343F4004343F0800322F821306BE4C5
:104ED000012BE0D1B0F850C000F204451FFA8CFC61
:104EE00065440B01EA52B0F8505000F20C40ADB2EC
:104EF0002844CFE7B8F1000F0DD130F8212022F47B
:104F0000E04222F070021204120C42F4404242F0DD
:104F1000800220F821204FF0280E0EFB074E9EF84D
:104F20003420012ABED1DEF8242002EB050CCEF895
:104F300024C0DA6A2A44DA62DEF83030DEF8202053
:104F400093422ED39B1ACEF83030282303FB07431D
:104F50005D7C93B2002D3ED1B0F850E000F20C45DC
:104F60001FFA8EFE7544090135F801E03E2ACEF3A2
:104F7000090E25F801E020D94FEA521ED2066A5ADE
:104F800008BF0EF1FF3E92B242EA8E226FEA424221
:104F90006FEA524292B26A52282202FB0742528BB7
:104FA00019E71BB92A468EF83430CEE70022CEF836
:104FB00030208EF834201A46C7E70AB96A5AE5E766
:104FC00035F801E002F001081FFA8EFE08EB5202EC
:104FD0004EEA8222DEE7012DDED1B0F8502000F249
:104FE0000C4592B215440A01AB52D5E7420512D5E1
:104FF00022682046B2F8443023F480631B041B0C63
:10500000A2F8443004F00BFA2946204607B0BDE868
:10501000F04FFFF7A8BB43040AD52268B2F844302A
:1050200023F480431B041B0CA2F84430FFF7C1BBE0
:10503000870405D52268B2F8443023F40053F1E721
:10504000C60419D522682046B2F8403023F0040384
:105050001B041B0CA2F84030B2F8403023F00803C8
:105060001B041B0CA2F8403004F0F6F92268B2F8D9
:10507000443023F48053D5E7050548D5236802ADB5
:10508000184629461A4603F1200632F8047B964258
:1050900021F8027BF9D1B3F8402092B242F001022C
:1050A000A3F84020B3F8402022F001021204120CB1
:1050B000A3F84020B3F844205105FBD5B3F84420B1
:1050C00022F480621204120CA3F8442035F8022B5B
:1050D00020F8042B8642F9D1B3F84020204692B242
:1050E00042F00802A3F84020B3F8442022F4006202
:1050F0001204120CA3F84420B3F8402092B242F0FC
:105100000402A3F8402004F097F9FFF752BB820590
:105110000DD522682046B2F8443023F400731B04F6
:105120001B0CA2F8443004F076F9FFF742BBC3052C
:105130007FF53FAB2268B2F8443023F4807371E707
:1051400070B52824054601F00700444311F0800F94
:1051500014BF04F1100104F5A87105EB040615BF96
:1051600001240024747486F8514114BF4919491967
:10517000022BCB7008BF0023087008BF0B710A61B7
:1051800095F89032012B09D00123286885F89032D8
:1051900001F060F9002085F8900270BD0220FCE764
:1051A000282301F00702534311F0800F10B5044685
:1051B00018BF03F1100118440BBF03F5A8710123B8
:1051C000002309190ABF0919437480F851310A7084
:1051D00094F89032012B09D00123206884F8903292
:1051E00001F098FA002084F8900210BD0220FCE73C
:1051F00070B52824002601F007014C43051985F8F5
:10520000501185F8516104F5A8710144C5E959238D
:10521000C5F86C61006801F0D9FB304670BD2823E9
:1052200001F0070103FB0100D0F86C01704770B575
:10523000282501F007014D434419C4E9092301223F
:105240000026217484F83420627405F110010144B1
:105250002363E662006801F0B9FB304670BD38B5E3
:10526000037901F00705AB4204462AD311F0800F01
:105270004FF028031CD001226B4303F110010344BB
:1052800001445A7401230D708B7094F890229A4255
:1052900019D0206884F8903201F00FFB25B92068FE
:1052A00004F5267101F080FB002084F8900238BDDF
:1052B00000224B4303F5A8710344014483F85121B4
:1052C000E0E70120F3E70220F1E738B5027901F0C9
:1052D0000F039A42044626D3282301F007025343C2
:1052E00011F0800F14BF03F1100103F5A8711844E9
:1052F0004FF0000515BF012300230919091914BF38
:10530000437480F851318D700A7094F89032012BFB
:105310000BD00123206884F8903201F0EEFA284681
:1053200084F8905238BD0120FCE70220FAE710B55E
:10533000282411F0800F1BBF01F0070104FB0100BE
:1053400004FB0100103008BF00F5A87099B21AB92B
:105350000273C180002010BD012283600273F9E74F
:10536000704700000122014B1A62704700000E4294
:105370002DE9F341054638B30368DB0710D42B68E9
:105380009F075ED42B68190700F195802B685A0798
:1053900000F1C180EB69002B40F02C81002029E056
:1053A000904C636803F00C03042B07D0636803F090
:1053B0000C03082B0AD16368DE0307D523689C031E
:1053C000DDD56B68002BDAD1012013E06B68B3F5F3
:1053D000803F12D1236843F480332360FDF7C2FB82
:1053E000064623689803CAD4FDF7BCFB801B6428DB
:1053F000F7D9032002B0BDE8F0819BB9236823F4FC
:1054000080332360236823F480232360FDF7AAFB05
:10541000064623689903B2D5FDF7A4FB801B6428D8
:10542000F7D9E6E7B3F5A02F236803D143F480232F
:105430002360CFE723F480332360236823F48023A1
:10544000CBE7684C636813F00C0F07D0636803F078
:105450000C03082B10D16368DA030DD423689B0773
:1054600002D52B69012BAFD123686A6923F0F803B9
:1054700043EAC203236085E72A695B4B6AB10122D4
:105480001A60FDF76FFB064623689F07ECD4FDF713
:1054900069FB801B0228F7D9ABE71A60FDF762FBB6
:1054A0000646236898077FF56DAFFDF75BFB801B11
:1054B0000228F6D99DE7AA694A4E4B4BE2B1012278
:1054C000C3F88024FDF74EFB0446736A9B070DD595
:1054D0004FF4FA52454B1B68B3FBF2F3019300BF44
:1054E000019B5A1E0192002BF9D14FE7FDF73AFBC1
:1054F000001B0228E9D97CE7C3F88024FDF732FBC2
:105500000446736A9F077FF541AFFDF72BFB001B35
:105510000228F6D96DE7334CE369D80024D401277B
:10552000E36943F08053E361E36903F08053009340
:10553000009B2F4E3368D90518D5EB68012B26D177
:10554000236A43F001032362FDF70CFB41F2883824
:105550000646236A9B073FD5002F3FF41BAFE36944
:1055600023F08053E36115E70027E2E7336843F453
:1055700080733360FDF7F6FA80463368DA05DCD4D1
:10558000FDF7F0FAA0EB08006428F6D931E7ABB9D3
:10559000236A41F2883823F001032362236A23F04F
:1055A00004032362FDF7DEFA0646236A9807D3D583
:1055B000FDF7D8FA801B4045F7D91AE7052B236A77
:1055C00003D143F004032362BAE723F0010323620B
:1055D000236A23F00403B6E7FDF7C4FA801B4045B5
:1055E000B7D906E700100240000042423000002018
:1055F000007000402A4C626802F00C02082A3ED07B
:105600000022022B274B1A662CD1FDF7ABFA064677
:105610002368990120D42B6AB3F5803F05D16268D5
:10562000A96822F400320A436260696A62680B4327
:1056300022F474121343012263601A4B1A66FDF7B9
:1056400091FA054623689A013FF5A8AEFDF78AFA5C
:10565000401B0228F6D9CCE6FDF784FA801B02280D
:10566000D6D9C6E6FDF77EFA054623689B017FF58D
:1056700095AEFDF777FA401B0228F6D9B9E6012B63
:105680003FF4A2AE60682B6A00F480329A427FF445
:105690009BAE6B6A00F47010C01A18BF0120A9E617
:1056A00000100240000042420D4A536803F00C0112
:1056B000082912D10B48C3F38341DB03405C09D5B1
:1056C0005368094AC3F340435043084AD35CB0FBD4
:1056D000F3F07047064B584370470348704700BFCC
:1056E000001002405EB2000800127A005CB20008AE
:1056F00000093D002DE9F0410D46044610B9012096
:10570000BDE8F081444A136803F007038B4228D3B5
:1057100021688E0730D4CA0743D43F4A136803F088
:105720000703AB4265D822683C4D12F0040F6CD1E0
:10573000130706D56B68226923F4605343EAC2035A
:105740006B60FFF7B1FF6B68354AC3F30313D35C9B
:10575000D840344B1860344B1868FDF7C1F900206D
:10576000CEE7136823F007030B431360136803F0BD
:1057700007038B42C3D1CBE7284B11F0040F1EBFA8
:105780005A6842F4E0625A60080742BF5A6842F41D
:1057900060525A605A68A06822F0F00202435A60D0
:1057A000B9E762681D4E012A33681AD113F4003F2D
:1057B000A5D0736841F2883823F003031343736064
:1057C000FDF7D0F907467368626803F00C03B3EB8A
:1057D000820FA2D0FDF7C6F9C01B4045F3D90320C4
:1057E0008EE7022A02D113F0007FE1E713F0020FE7
:1057F000DEE7136823F007032B431360136803F0FD
:105800000703AB427FF47BAF8DE76B68E16823F45D
:10581000E0630B436B608BE7002002400010024006
:10582000C8B20008300000200C000020044B054ADC
:105830005B68C3F30223D35C034A1068D840704707
:1058400000100240C0B2000830000020044B054A9E
:105850005B68C3F3C223D35C034A1068D840704727
:1058600000100240C0B200083000002003682DE99B
:10587000F3410546D80720D5364CE369D9002AD430
:105880000126E36943F08053E361E36903F0805349
:105890000193019B304F3B68DA051ED5236A13F450
:1058A00040732ED1236A6A6823F440731343236242
:1058B0001EB1E36923F08053E3612A68910706D59E
:1058C0002449A8684B6823F4404303434B60D30644
:1058D00037D4002012E00026DCE73B6843F48073F5
:1058E0003B60FDF73FF980463B68DB05D6D4FDF70A
:1058F00039F9A0EB08006428F6D9032002B0BDE80E
:10590000F0816A6802F440729A42CBD00120134AB7
:10591000236AC2F84004002023F44071DF07C2F874
:1059200040042162BED5FDF71DF941F288380746D3
:10593000236A9807B6D4FDF715F9C01B4045F7D97F
:10594000DBE7044AE968536823F480030B435360A0
:10595000BFE700BF0010024000700040000042425C
:10596000022808B544D0102803D0012822D00020F6
:1059700034E0254B5A68186810F080702ED0C2F3BE
:1059800083412248D20348BF5A68405C41BF204946
:10599000C2F34042895C1F4A5B684CBFB2FBF1F224
:1059A0001D4A5B0202FB00F018D403234000B0FB49
:1059B000F3F013E040F20231134A136A1940B1F5D3
:1059C000817F1ED003F44073B3F5007F07D149F601
:1059D0004040536A13F0020F08BF002008BDB3F522
:1059E000407FC4D113684FF2244013F4003FF3E723
:1059F000FFF72CFF044B5B68C3F3813301335B007B
:105A0000D5E74FF40040E9E70010024070B200080B
:105A10006EB2000800127A0000093D00704770471E
:105A2000036870B5DD681E690446B1070DD5AA0785
:105A30000BD56FF002021A61012202779B699B0766
:105A400069D000F0D8FC00232377710710D56A07CE
:105A50000ED56FF00402236820461A6102222277D5
:105A60009B6913F4407F5CD000F0C5FC00232377D2
:105A700033070FD528070DD56FF00802236820469D
:105A80001A6104222277DB69990750D000F0B3FC39
:105A900000232377F20610D5EB060ED56FF0100227
:105AA000236820461A6108222277DB6913F4407FBD
:105AB00043D000F0A0FC00232377F00708D5E907C6
:105AC00006D56FF00102236820461A6100F070FCD1
:105AD000320608D52B0606D56FF0800223682046D3
:105AE0001A6100F090F8700608D5690606D56FF0C7
:105AF0004002236820461A61FFF791FFB20622D5C3
:105B0000AB0620D56FF0200223682046BDE8704028
:105B10001A6100F077B800F06CFC2046FFF77EFFBA
:105B200091E700F066FC2046FFF778FF9EE700F063
:105B300060FC2046FFF772FFAAE700F05AFC2046FF
:105B4000FFF76CFFB7E770BD174A036890420AD0B1
:105B5000B0F1804F07D0A2F59432904203D002F505
:105B60008062904207D14A6823F070031343CA68E9
:105B700023F4407313434A6923F080031343036003
:105B80008B68C3620B688362074B984204BF0B6942
:105B90000363012343610369DB0742BF036923F009
:105BA00001030361704700BF002C014010B504469B
:105BB00030B390F83D3003F0FF021BB980F83C2071
:105BC00001F04AFF0223206884F83D30211DFFF7D1
:105BD000BBFF0123002084F8463084F83E3084F86F
:105BE0003F3084F8403084F8413084F8423084F803
:105BF000433084F8443084F8453084F83D3010BD9B
:105C00000120FCE770477047026802F10C0353E87B
:105C1000003F23F490730C3242E8003102680029FF
:105C2000F2D102F1140353E8003F23F0010302F123
:105C3000140C4CE800310029F3D1036B012B0BD17C
:105C400002F10C0353E8003F23F0100302F10C0CA7
:105C50004CE800310029F3D1202380F842300023A2
:105C60000363704710B504460368C1681A6922F4DB
:105C700040520A431A6182680069D9680243606928
:105C800021F4B05121F00C0102430A43DA605A6951
:105C9000A16922F440720A435A610E4A934215D117
:105CA000FFF7D4FD19234343626820689200B3FBD9
:105CB000F2F36422B3FBF2F102FB11331B01323326
:105CC000B3FBF2F303EB0113836010BDFFF7AEFDEE
:105CD000E8E700BF00380140704710B5044648B3FC
:105CE00090F8413003F0FF021BB980F84020FFF725
:105CF000F3FF2423226884F84130D368204623F43C
:105D00000053D360FFF7AEFF236800201A6922F426
:105D100090421A615A6922F02A025A61DA6842F402
:105D20000052DA602023606484F8413084F8423005
:105D3000606310BD0120FCE710B5044668B390F81D
:105D4000413003F0FF021BB980F84020FFF7C4FF89
:105D50002423226884F84130D368204623F400537A
:105D6000D360FFF77FFF236800201A6922F4904276
:105D70001A615A6922F022025A615A6942F00802F5
:105D80005A61DA6842F40052DA602023606484F8D1
:105D9000413084F84230606310BD0120FCE790F888
:105DA0004130202B10D189B182B1C284828400237A
:105DB000212201620168436480F84120CA681846C4
:105DC00042F08002CA60704702207047012070478D
:105DD00008B50023406AC385C38401F0F7FF08BDFE
:105DE000704790F8423007B5222B42D18168026893
:105DF000B1F5805F836A3FD1016900293FD15268C4
:105E0000C2F3080223F8022B8362C38D013B9BB2CD
:105E1000C385002B2DD10268D16821F02001D1600B
:105E2000D16821F48071D160516921F00101516183
:105E3000202280F842204363026B012A026828D1A5
:105E4000036302F10C0353E8003F23F0100302F157
:105E50000C0C4CE800310029F3D11368DB0605D5A2
:105E600001911368019353680193019B818DFFF7A2
:105E7000B7FF03B05DF804FB39B9016929B952686D
:105E8000D2B21A70836A0133BEE7526802F07F0211
:105E9000F7E701F095FFECE7036873B51A6804466D
:105EA0001607D9685D6908D1960668D58D0666D54E
:105EB00002B0BDE87040FFF794BF05F0010001F4A7
:105EC000907505435BD0D60705D5CD0542BF636C01
:105ED00043F001036364530704D518B1636C43F0C6
:105EE00002036364960704D518B1636C43F004039E
:105EF0006364150707D501F0200303431EBF636CDD
:105F000043F008036364636C002B32D0920604D51F
:105F10008B0602D52046FFF764FF2668204673698A
:105F2000626C03F0400302F0080253EA020522D03B
:105F3000FFF76AFE73695E0618D5226802F1140342
:105F400053E8003F23F04003143242E800310029B7
:105F5000F3D1E06B50B1744B4363FDF717FA40B1D6
:105F6000E06B436B02B0BDE870401847204601F07B
:105F70002DFF02B070BD01F029FF6564F9E7206BC9
:105F8000012840F09480D50640F19180C80640F188
:105F90008E80002201921A6801925A680192019A39
:105FA0005A6952064DD5E16B0A68526892B2002ACE
:105FB000DFD0A08D9042DCD9E2858A69202A36D0D4
:105FC00003F10C0252E8002F22F4807203F10C005E
:105FD00040E800210029F3D103F1140252E8002F18
:105FE00022F0010203F1140040E800210029F3D15E
:105FF00003F1140252E8002F22F0400203F11400D2
:1060000040E800210029F3D1202284F842202163B6
:1060100003F10C0252E8002F22F0100203F10C00F1
:1060200040E800210029F3D1E06BFDF78FF902234E
:106030006363E38DA18DC91A89B22046FFF7D0FEB4
:1060400097E7E28DE18D92B289B2002991D0A18DBE
:10605000891A89B200298CD003F10C0252E8002F72
:1060600022F4907203F10C0545E800200028F3D1DA
:1060700003F1140252E8002F22F0010203F114058B
:1060800045E800200028F3D1202284F84220206334
:1060900003F10C0252E8002F22F0100203F10C056C
:1060A00045E800200028F3D102236363C5E7160604
:1060B00028D50D0626D594F84120212A7FF459AF22
:1060C000A168226AB1F5805F17D12169A9B932F8B8
:1060D000021BC1F3080159602262E28C013A92B2BC
:1060E000E284002A7FF445AFDA6822F08002DA60A9
:1060F000DA6842F04002DA603BE7511C2162127814
:106100005A60EAE750067FF534AF4A067FF531AFB3
:10611000DA68204622F04002DA60202384F8413019
:1061200001F051FE25E700BFD15D000890F8403036
:10613000012B11D02423026880F84130D36823F06A
:106140000C0343F00803D360202380F84130002380
:1061500080F84030184670470220704790F8403071
:10616000012B11D02423026880F84130D36823F03A
:106170000C0343F00403D360202380F84130002354
:1061800080F84030184670470220704790F8412050
:1061900090F84200104370470023C28543642223D5
:1061A0008285026980F84230816203681AB1DA6838
:1061B00042F48072DA605A69002042F001025A61AA
:1061C000DA6842F02002DA60704770B590F84260F9
:1061D000202E07D141B13AB100240463FFF7DCFF60
:1061E000204670BD0220FCE70120FAE7836810B565
:1061F00004462BB10322014698470023C4E9023329
:1062000010BD00000B4B98420BD0B0F1804F0AD06C
:10621000A3F59433984208D003F58063984206D0E2
:10622000FEE70020704701207047022070470320DE
:10623000704700BF002C0140024670B5044652F87A
:10624000100FFFF7DFFF0546104601F097FB002314
:10625000084A04F1600642F82530E36004F1B00515
:10626000B54204D0103D2846FBF79DFEF8E72046D6
:1062700070BD00BF1C050020F8B504460846FFF7B6
:10628000C1FF236903B1FEE71B4D04F10C0245F881
:1062900020200E2204F110063046C4E90C33C4E974
:1062A0000E33C4E91033C4E91623216184F82C307D
:1062B000A36484F84C3084F84D30E46001F01AFB9C
:1062C00004F1600504F1B00728461035FFF78EFF92
:1062D000BD42F9D100234FF6FF72C4E90033C4E98F
